{
  "_format": "hh-sol-artifact-1",
  "contractName": "CosmicMemory",
  "sourceName": "contracts/CosmicMemory.sol",
  "abi": [
    {
      "inputs": [],
      "stateMutability": "nonpayable",
      "type": "constructor"
    },
    {
      "inputs": [
        {
          "internalType": "address",
          "name": "sender",
          "type": "address"
        },
        {
          "internalType": "uint256",
          "name": "tokenId",
          "type": "uint256"
        },
        {
          "internalType": "address",
          "name": "owner",
          "type": "address"
        }
      ],
      "name": "ERC721IncorrectOwner",
      "type": "error"
    },
    {
      "inputs": [
        {
          "internalType": "address",
          "name": "operator",
          "type": "address"
        },
        {
          "internalType": "uint256",
          "name": "tokenId",
          "type": "uint256"
        }
      ],
      "name": "ERC721InsufficientApproval",
      "type": "error"
    },
    {
      "inputs": [
        {
          "internalType": "address",
          "name": "approver",
          "type": "address"
        }
      ],
      "name": "ERC721InvalidApprover",
      "type": "error"
    },
    {
      "inputs": [
        {
          "internalType": "address",
          "name": "operator",
          "type": "address"
        }
      ],
      "name": "ERC721InvalidOperator",
      "type": "error"
    },
    {
      "inputs": [
        {
          "internalType": "address",
          "name": "owner",
          "type": "address"
        }
      ],
      "name": "ERC721InvalidOwner",
      "type": "error"
    },
    {
      "inputs": [
        {
          "internalType": "address",
          "name": "receiver",
          "type": "address"
        }
      ],
      "name": "ERC721InvalidReceiver",
      "type": "error"
    },
    {
      "inputs": [
        {
          "internalType": "address",
          "name": "sender",
          "type": "address"
        }
      ],
      "name": "ERC721InvalidSender",
      "type": "error"
    },
    {
      "inputs": [
        {
          "internalType": "uint256",
          "name": "tokenId",
          "type": "uint256"
        }
      ],
      "name": "ERC721NonexistentToken",
      "type": "error"
    },
    {
      "inputs": [
        {
          "internalType": "address",
          "name": "owner",
          "type": "address"
        }
      ],
      "name": "OwnableInvalidOwner",
      "type": "error"
    },
    {
      "inputs": [
        {
          "internalType": "address",
          "name": "account",
          "type": "address"
        }
      ],
      "name": "OwnableUnauthorizedAccount",
      "type": "error"
    },
    {
      "anonymous": false,
      "inputs": [
        {
          "indexed": true,
          "internalType": "address",
          "name": "owner",
          "type": "address"
        },
        {
          "indexed": true,
          "internalType": "address",
          "name": "approved",
          "type": "address"
        },
        {
          "indexed": true,
          "internalType": "uint256",
          "name": "tokenId",
          "type": "uint256"
        }
      ],
      "name": "Approval",
      "type": "event"
    },
    {
      "anonymous": false,
      "inputs": [
        {
          "indexed": true,
          "internalType": "address",
          "name": "owner",
          "type": "address"
        },
        {
          "indexed": true,
          "internalType": "address",
          "name": "operator",
          "type": "address"
        },
        {
          "indexed": false,
          "internalType": "bool",
          "name": "approved",
          "type": "bool"
        }
      ],
      "name": "ApprovalForAll",
      "type": "event"
    },
    {
      "anonymous": false,
      "inputs": [
        {
          "indexed": true,
          "internalType": "address",
          "name": "player",
          "type": "address"
        }
      ],
      "name": "GameCompleted",
      "type": "event"
    },
    {
      "anonymous": false,
      "inputs": [
        {
          "indexed": true,
          "internalType": "address",
          "name": "player",
          "type": "address"
        },
        {
          "indexed": false,
          "internalType": "uint256",
          "name": "matchCount",
          "type": "uint256"
        }
      ],
      "name": "MatchFound",
      "type": "event"
    },
    {
      "anonymous": false,
      "inputs": [
        {
          "indexed": true,
          "internalType": "address",
          "name": "previousOwner",
          "type": "address"
        },
        {
          "indexed": true,
          "internalType": "address",
          "name": "newOwner",
          "type": "address"
        }
      ],
      "name": "OwnershipTransferred",
      "type": "event"
    },
    {
      "anonymous": false,
      "inputs": [
        {
          "indexed": true,
          "internalType": "address",
          "name": "from",
          "type": "address"
        },
        {
          "indexed": true,
          "internalType": "address",
          "name": "to",
          "type": "address"
        },
        {
          "indexed": true,
          "internalType": "uint256",
          "name": "tokenId",
          "type": "uint256"
        }
      ],
      "name": "Transfer",
      "type": "event"
    },
    {
      "inputs": [
        {
          "internalType": "address",
          "name": "to",
          "type": "address"
        },
        {
          "internalType": "uint256",
          "name": "tokenId",
          "type": "uint256"
        }
      ],
      "name": "approve",
      "outputs": [],
      "stateMutability": "nonpayable",
      "type": "function"
    },
    {
      "inputs": [
        {
          "internalType": "address",
          "name": "owner",
          "type": "address"
        }
      ],
      "name": "balanceOf",
      "outputs": [
        {
          "internalType": "uint256",
          "name": "",
          "type": "uint256"
        }
      ],
      "stateMutability": "view",
      "type": "function"
    },
    {
      "inputs": [
        {
          "internalType": "address",
          "name": "",
          "type": "address"
        }
      ],
      "name": "completed",
      "outputs": [
        {
          "internalType": "bool",
          "name": "",
          "type": "bool"
        }
      ],
      "stateMutability": "view",
      "type": "function"
    },
    {
      "inputs": [],
      "name": "finishGame",
      "outputs": [],
      "stateMutability": "nonpayable",
      "type": "function"
    },
    {
      "inputs": [
        {
          "internalType": "uint256",
          "name": "tokenId",
          "type": "uint256"
        }
      ],
      "name": "getApproved",
      "outputs": [
        {
          "internalType": "address",
          "name": "",
          "type": "address"
        }
      ],
      "stateMutability": "view",
      "type": "function"
    },
    {
      "inputs": [
        {
          "internalType": "address",
          "name": "owner",
          "type": "address"
        },
        {
          "internalType": "address",
          "name": "operator",
          "type": "address"
        }
      ],
      "name": "isApprovedForAll",
      "outputs": [
        {
          "internalType": "bool",
          "name": "",
          "type": "bool"
        }
      ],
      "stateMutability": "view",
      "type": "function"
    },
    {
      "inputs": [
        {
          "internalType": "address",
          "name": "",
          "type": "address"
        }
      ],
      "name": "matches",
      "outputs": [
        {
          "internalType": "uint256",
          "name": "",
          "type": "uint256"
        }
      ],
      "stateMutability": "view",
      "type": "function"
    },
    {
      "inputs": [],
      "name": "name",
      "outputs": [
        {
          "internalType": "string",
          "name": "",
          "type": "string"
        }
      ],
      "stateMutability": "view",
      "type": "function"
    },
    {
      "inputs": [],
      "name": "owner",
      "outputs": [
        {
          "internalType": "address",
          "name": "",
          "type": "address"
        }
      ],
      "stateMutability": "view",
      "type": "function"
    },
    {
      "inputs": [
        {
          "internalType": "uint256",
          "name": "tokenId",
          "type": "uint256"
        }
      ],
      "name": "ownerOf",
      "outputs": [
        {
          "internalType": "address",
          "name": "",
          "type": "address"
        }
      ],
      "stateMutability": "view",
      "type": "function"
    },
    {
      "inputs": [],
      "name": "recordMatch",
      "outputs": [],
      "stateMutability": "nonpayable",
      "type": "function"
    },
    {
      "inputs": [],
      "name": "renounceOwnership",
      "outputs": [],
      "stateMutability": "nonpayable",
      "type": "function"
    },
    {
      "inputs": [],
      "name": "reset",
      "outputs": [],
      "stateMutability": "nonpayable",
      "type": "function"
    },
    {
      "inputs": [
        {
          "internalType": "address",
          "name": "from",
          "type": "address"
        },
        {
          "internalType": "address",
          "name": "to",
          "type": "address"
        },
        {
          "internalType": "uint256",
          "name": "tokenId",
          "type": "uint256"
        }
      ],
      "name": "safeTransferFrom",
      "outputs": [],
      "stateMutability": "nonpayable",
      "type": "function"
    },
    {
      "inputs": [
        {
          "internalType": "address",
          "name": "from",
          "type": "address"
        },
        {
          "internalType": "address",
          "name": "to",
          "type": "address"
        },
        {
          "internalType": "uint256",
          "name": "tokenId",
          "type": "uint256"
        },
        {
          "internalType": "bytes",
          "name": "data",
          "type": "bytes"
        }
      ],
      "name": "safeTransferFrom",
      "outputs": [],
      "stateMutability": "nonpayable",
      "type": "function"
    },
    {
      "inputs": [
        {
          "internalType": "address",
          "name": "operator",
          "type": "address"
        },
        {
          "internalType": "bool",
          "name": "approved",
          "type": "bool"
        }
      ],
      "name": "setApprovalForAll",
      "outputs": [],
      "stateMutability": "nonpayable",
      "type": "function"
    },
    {
      "inputs": [],
      "name": "startGame",
      "outputs": [],
      "stateMutability": "nonpayable",
      "type": "function"
    },
    {
      "inputs": [
        {
          "internalType": "bytes4",
          "name": "interfaceId",
          "type": "bytes4"
        }
      ],
      "name": "supportsInterface",
      "outputs": [
        {
          "internalType": "bool",
          "name": "",
          "type": "bool"
        }
      ],
      "stateMutability": "view",
      "type": "function"
    },
    {
      "inputs": [],
      "name": "symbol",
      "outputs": [
        {
          "internalType": "string",
          "name": "",
          "type": "string"
        }
      ],
      "stateMutability": "view",
      "type": "function"
    },
    {
      "inputs": [],
      "name": "tokenIdCounter",
      "outputs": [
        {
          "internalType": "uint256",
          "name": "",
          "type": "uint256"
        }
      ],
      "stateMutability": "view",
      "type": "function"
    },
    {
      "inputs": [
        {
          "internalType": "uint256",
          "name": "tokenId",
          "type": "uint256"
        }
      ],
      "name": "tokenURI",
      "outputs": [
        {
          "internalType": "string",
          "name": "",
          "type": "string"
        }
      ],
      "stateMutability": "view",
      "type": "function"
    },
    {
      "inputs": [
        {
          "internalType": "address",
          "name": "from",
          "type": "address"
        },
        {
          "internalType": "address",
          "name": "to",
          "type": "address"
        },
        {
          "internalType": "uint256",
          "name": "tokenId",
          "type": "uint256"
        }
      ],
      "name": "transferFrom",
      "outputs": [],
      "stateMutability": "nonpayable",
      "type": "function"
    },
    {
      "inputs": [
        {
          "internalType": "address",
          "name": "newOwner",
          "type": "address"
        }
      ],
      "name": "transferOwnership",
      "outputs": [],
      "stateMutability": "nonpayable",
      "type": "function"
    }
  ],
  "bytecode": "0x60806040523480156200001157600080fd5b50336040518060400160405280600c81526020017f436f736d69634d656d6f727900000000000000000000000000000000000000008152506040518060400160405280600381526020017f434d4d000000000000000000000000000000000000000000000000000000000081525081600090816200009091906200047a565b508060019081620000a291906200047a565b505050600073ffffffffffffffffffffffffffffffffffffffff168173ffffffffffffffffffffffffffffffffffffffff16036200011a5760006040517f1e4fbdf7000000000000000000000000000000000000000000000000000000008152600401620001119190620005a6565b60405180910390fd5b6200012b816200013a60201b60201c565b506001600781905550620005c3565b6000600660009054906101000a900473ffffffffffffffffffffffffffffffffffffffff16905081600660006101000a81548173ffffffffffffffffffffffffffffffffffffffff021916908373ffffffffffffffffffffffffffffffffffffffff1602179055508173ffffffffffffffffffffffffffffffffffffffff168173ffffffffffffffffffffffffffffffffffffffff167f8be0079c531659141344cd1fd0a4f28419497f9722a3daafe3b4186f6b6457e060405160405180910390a35050565b600081519050919050565b7f4e487b7100000000000000000000000000000000000000000000000000000000600052604160045260246000fd5b7f4e487b7100000000000000000000000000000000000000000000000000000000600052602260045260246000fd5b600060028204905060018216806200028257607f821691505b6020821081036200029857620002976200023a565b5b50919050565b60008190508160005260206000209050919050565b60006020601f8301049050919050565b600082821b905092915050565b600060088302620003027fffffffffffffffffffffffffffffffffffffffffffffffffffffffffffffffff82620002c3565b6200030e8683620002c3565b95508019841693508086168417925050509392505050565b6000819050919050565b6000819050919050565b60006200035b620003556200034f8462000326565b62000330565b62000326565b9050919050565b6000819050919050565b62000377836200033a565b6200038f620003868262000362565b848454620002d0565b825550505050565b600090565b620003a662000397565b620003b38184846200036c565b505050565b5b81811015620003db57620003cf6000826200039c565b600181019050620003b9565b5050565b601f8211156200042a57620003f4816200029e565b620003ff84620002b3565b810160208510156200040f578190505b620004276200041e85620002b3565b830182620003b8565b50505b505050565b600082821c905092915050565b60006200044f600019846008026200042f565b1980831691505092915050565b60006200046a83836200043c565b9150826002028217905092915050565b620004858262000200565b67ffffffffffffffff811115620004a157620004a06200020b565b5b620004ad825462000269565b620004ba828285620003df565b600060209050601f831160018114620004f25760008415620004dd578287015190505b620004e985826200045c565b86555062000559565b601f19841662000502866200029e565b60005b828110156200052c5784890151825560018201915060208501945060208101905062000505565b868310156200054c578489015162000548601f8916826200043c565b8355505b6001600288020188555050505b505050505050565b600073ffffffffffffffffffffffffffffffffffffffff82169050919050565b60006200058e8262000561565b9050919050565b620005a08162000581565b82525050565b6000602082019050620005bd600083018462000595565b92915050565b61279d80620005d36000396000f3fe608060405234801561001057600080fd5b506004361061014d5760003560e01c806398bdf6f5116100c3578063d65ab5f21161007c578063d65ab5f21461038a578063d826f88f14610394578063e420bdf41461039e578063e985e9c5146103ce578063f2fde38b146103fe578063f90fdbe11461041a5761014d565b806398bdf6f5146102ca5780639fecb69f146102e8578063a22cb465146102f2578063b88d4fde1461030e578063c87b56dd1461032a578063cd01ab161461035a5761014d565b806342842e0e1161011557806342842e0e146102085780636352211e1461022457806370a0823114610254578063715018a6146102845780638da5cb5b1461028e57806395d89b41146102ac5761014d565b806301ffc9a71461015257806306fdde0314610182578063081812fc146101a0578063095ea7b3146101d057806323b872dd146101ec575b600080fd5b61016c60048036038101906101679190611e2c565b610424565b6040516101799190611e74565b60405180910390f35b61018a610506565b6040516101979190611f1f565b60405180910390f35b6101ba60048036038101906101b59190611f77565b610598565b6040516101c79190611fe5565b60405180910390f35b6101ea60048036038101906101e5919061202c565b6105b4565b005b6102066004803603810190610201919061206c565b6105ca565b005b610222600480360381019061021d919061206c565b6106cc565b005b61023e60048036038101906102399190611f77565b6106ec565b60405161024b9190611fe5565b60405180910390f35b61026e600480360381019061026991906120bf565b6106fe565b60405161027b91906120fb565b60405180910390f35b61028c6107b8565b005b6102966107cc565b6040516102a39190611fe5565b60405180910390f35b6102b46107f6565b6040516102c19190611f1f565b60405180910390f35b6102d2610888565b6040516102df91906120fb565b60405180910390f35b6102f061088e565b005b61030c60048036038101906103079190612142565b610a39565b005b610328600480360381019061032391906122b7565b610a4f565b005b610344600480360381019061033f9190611f77565b610a74565b6040516103519190611f1f565b60405180910390f35b610374600480360381019061036f91906120bf565b610add565b60405161038191906120fb565b60405180910390f35b610392610af5565b005b61039c610b94565b005b6103b860048036038101906103b391906120bf565b610c33565b6040516103c59190611e74565b60405180910390f35b6103e860048036038101906103e3919061233a565b610c53565b6040516103f59190611e74565b60405180910390f35b610418600480360381019061041391906120bf565b610ce7565b005b610422610d6d565b005b60007f80ac58cd000000000000000000000000000000000000000000000000000000007bffffffffffffffffffffffffffffffffffffffffffffffffffffffff1916827bffffffffffffffffffffffffffffffffffffffffffffffffffffffff191614806104ef57507f5b5e139f000000000000000000000000000000000000000000000000000000007bffffffffffffffffffffffffffffffffffffffffffffffffffffffff1916827bffffffffffffffffffffffffffffffffffffffffffffffffffffffff1916145b806104ff57506104fe82610ef6565b5b9050919050565b606060008054610515906123a9565b80601f0160208091040260200160405190810160405280929190818152602001828054610541906123a9565b801561058e5780601f106105635761010080835404028352916020019161058e565b820191906000526020600020905b81548152906001019060200180831161057157829003601f168201915b5050505050905090565b60006105a382610f60565b506105ad82610fe8565b9050919050565b6105c682826105c1611025565b61102d565b5050565b600073ffffffffffffffffffffffffffffffffffffffff168273ffffffffffffffffffffffffffffffffffffffff160361063c5760006040517f64a0ae920000000000000000000000000000000000000000000000000000000081526004016106339190611fe5565b60405180910390fd5b6000610650838361064b611025565b61103f565b90508373ffffffffffffffffffffffffffffffffffffffff168173ffffffffffffffffffffffffffffffffffffffff16146106c6578382826040517f64283d7b0000000000000000000000000000000000000000000000000000000081526004016106bd939291906123da565b60405180910390fd5b50505050565b6106e783838360405180602001604052806000815250610a4f565b505050565b60006106f782610f60565b9050919050565b60008073ffffffffffffffffffffffffffffffffffffffff168273ffffffffffffffffffffffffffffffffffffffff16036107715760006040517f89c62b640000000000000000000000000000000000000000000000000000000081526004016107689190611fe5565b60405180910390fd5b600360008373ffffffffffffffffffffffffffffffffffffffff1673ffffffffffffffffffffffffffffffffffffffff168152602001908152602001600020549050919050565b6107c0611259565b6107ca60006112e0565b565b6000600660009054906101000a900473ffffffffffffffffffffffffffffffffffffffff16905090565b606060018054610805906123a9565b80601f0160208091040260200160405190810160405280929190818152602001828054610831906123a9565b801561087e5780601f106108535761010080835404028352916020019161087e565b820191906000526020600020905b81548152906001019060200180831161086157829003601f168201915b5050505050905090565b60075481565b60088060003373ffffffffffffffffffffffffffffffffffffffff1673ffffffffffffffffffffffffffffffffffffffff168152602001908152602001600020541461090f576040517f08c379a00000000000000000000000000000000000000000000000000000000081526004016109069061245d565b60405180910390fd5b600960003373ffffffffffffffffffffffffffffffffffffffff1673ffffffffffffffffffffffffffffffffffffffff16815260200190815260200160002060009054906101000a900460ff161561099c576040517f08c379a0000000000000000000000000000000000000000000000000000000008152600401610993906124c9565b60405180910390fd5b6001600960003373ffffffffffffffffffffffffffffffffffffffff1673ffffffffffffffffffffffffffffffffffffffff16815260200190815260200160002060006101000a81548160ff0219169083151502179055503373ffffffffffffffffffffffffffffffffffffffff167f8ff4e38b37c586a4a4c47ff0108bea921d48026c75a6c58327eaa35d705774c760405160405180910390a2565b610a4b610a44611025565b83836113a6565b5050565b610a5a8484846105ca565b610a6e610a65611025565b85858585611515565b50505050565b6060610a7f82610f60565b506000610a8a6116c6565b90506000815111610aaa5760405180602001604052806000815250610ad5565b80610ab4846116dd565b604051602001610ac5929190612525565b6040516020818303038152906040525b915050919050565b60086020528060005260406000206000915090505481565b6000600860003373ffffffffffffffffffffffffffffffffffffffff1673ffffffffffffffffffffffffffffffffffffffff168152602001908152602001600020819055506000600960003373ffffffffffffffffffffffffffffffffffffffff1673ffffffffffffffffffffffffffffffffffffffff16815260200190815260200160002060006101000a81548160ff021916908315150217905550565b6000600860003373ffffffffffffffffffffffffffffffffffffffff1673ffffffffffffffffffffffffffffffffffffffff168152602001908152602001600020819055506000600960003373ffffffffffffffffffffffffffffffffffffffff1673ffffffffffffffffffffffffffffffffffffffff16815260200190815260200160002060006101000a81548160ff021916908315150217905550565b60096020528060005260406000206000915054906101000a900460ff1681565b6000600560008473ffffffffffffffffffffffffffffffffffffffff1673ffffffffffffffffffffffffffffffffffffffff16815260200190815260200160002060008373ffffffffffffffffffffffffffffffffffffffff1673ffffffffffffffffffffffffffffffffffffffff16815260200190815260200160002060009054906101000a900460ff16905092915050565b610cef611259565b600073ffffffffffffffffffffffffffffffffffffffff168173ffffffffffffffffffffffffffffffffffffffff1603610d615760006040517f1e4fbdf7000000000000000000000000000000000000000000000000000000008152600401610d589190611fe5565b60405180910390fd5b610d6a816112e0565b50565b60088060003373ffffffffffffffffffffffffffffffffffffffff1673ffffffffffffffffffffffffffffffffffffffff1681526020019081526020016000205410610dee576040517f08c379a0000000000000000000000000000000000000000000000000000000008152600401610de590612595565b60405180910390fd5b600860003373ffffffffffffffffffffffffffffffffffffffff1673ffffffffffffffffffffffffffffffffffffffff1681526020019081526020016000206000815480929190610e3e906125e4565b91905055503373ffffffffffffffffffffffffffffffffffffffff167f2b314192437354fb0cffaabf77cb2bc91ce3b9c039a57a200e0341f2cd5fdfde600860003373ffffffffffffffffffffffffffffffffffffffff1673ffffffffffffffffffffffffffffffffffffffff16815260200190815260200160002054604051610ec891906120fb565b60405180910390a2610edc336007546117ab565b60076000815480929190610eef906125e4565b9190505550565b60007f01ffc9a7000000000000000000000000000000000000000000000000000000007bffffffffffffffffffffffffffffffffffffffffffffffffffffffff1916827bffffffffffffffffffffffffffffffffffffffffffffffffffffffff1916149050919050565b600080610f6c836117c9565b9050600073ffffffffffffffffffffffffffffffffffffffff168173ffffffffffffffffffffffffffffffffffffffff1603610fdf57826040517f7e273289000000000000000000000000000000000000000000000000000000008152600401610fd691906120fb565b60405180910390fd5b80915050919050565b60006004600083815260200190815260200160002060009054906101000a900473ffffffffffffffffffffffffffffffffffffffff169050919050565b600033905090565b61103a8383836001611806565b505050565b60008061104b846117c9565b9050600073ffffffffffffffffffffffffffffffffffffffff168373ffffffffffffffffffffffffffffffffffffffff161461108d5761108c8184866119cb565b5b600073ffffffffffffffffffffffffffffffffffffffff168173ffffffffffffffffffffffffffffffffffffffff161461111e576110cf600085600080611806565b6001600360008373ffffffffffffffffffffffffffffffffffffffff1673ffffffffffffffffffffffffffffffffffffffff168152602001908152602001600020600082825403925050819055505b600073ffffffffffffffffffffffffffffffffffffffff168573ffffffffffffffffffffffffffffffffffffffff16146111a1576001600360008773ffffffffffffffffffffffffffffffffffffffff1673ffffffffffffffffffffffffffffffffffffffff168152602001908152602001600020600082825401925050819055505b846002600086815260200190815260200160002060006101000a81548173ffffffffffffffffffffffffffffffffffffffff021916908373ffffffffffffffffffffffffffffffffffffffff160217905550838573ffffffffffffffffffffffffffffffffffffffff168273ffffffffffffffffffffffffffffffffffffffff167fddf252ad1be2c89b69c2b068fc378daa952ba7f163c4a11628f55a4df523b3ef60405160405180910390a4809150509392505050565b611261611025565b73ffffffffffffffffffffffffffffffffffffffff1661127f6107cc565b73ffffffffffffffffffffffffffffffffffffffff16146112de576112a2611025565b6040517f118cdaa70000000000000000000000000000000000000000000000000000000081526004016112d59190611fe5565b60405180910390fd5b565b6000600660009054906101000a900473ffffffffffffffffffffffffffffffffffffffff16905081600660006101000a81548173ffffffffffffffffffffffffffffffffffffffff021916908373ffffffffffffffffffffffffffffffffffffffff1602179055508173ffffffffffffffffffffffffffffffffffffffff168173ffffffffffffffffffffffffffffffffffffffff167f8be0079c531659141344cd1fd0a4f28419497f9722a3daafe3b4186f6b6457e060405160405180910390a35050565b600073ffffffffffffffffffffffffffffffffffffffff168273ffffffffffffffffffffffffffffffffffffffff160361141757816040517f5b08ba1800000000000000000000000000000000000000000000000000000000815260040161140e9190611fe5565b60405180910390fd5b80600560008573ffffffffffffffffffffffffffffffffffffffff1673ffffffffffffffffffffffffffffffffffffffff16815260200190815260200160002060008473ffffffffffffffffffffffffffffffffffffffff1673ffffffffffffffffffffffffffffffffffffffff16815260200190815260200160002060006101000a81548160ff0219169083151502179055508173ffffffffffffffffffffffffffffffffffffffff168373ffffffffffffffffffffffffffffffffffffffff167f17307eab39ab6107e8899845ad3d59bd9653f200f220920489ca2b5937696c31836040516115089190611e74565b60405180910390a3505050565b60008373ffffffffffffffffffffffffffffffffffffffff163b11156116bf578273ffffffffffffffffffffffffffffffffffffffff1663150b7a02868685856040518563ffffffff1660e01b81526004016115749493929190612681565b6020604051808303816000875af19250505080156115b057506040513d601f19601f820116820180604052508101906115ad91906126e2565b60015b611634573d80600081146115e0576040519150601f19603f3d011682016040523d82523d6000602084013e6115e5565b606091505b50600081510361162c57836040517f64a0ae920000000000000000000000000000000000000000000000000000000081526004016116239190611fe5565b60405180910390fd5b805181602001fd5b63150b7a0260e01b7bffffffffffffffffffffffffffffffffffffffffffffffffffffffff1916817bffffffffffffffffffffffffffffffffffffffffffffffffffffffff1916146116bd57836040517f64a0ae920000000000000000000000000000000000000000000000000000000081526004016116b49190611fe5565b60405180910390fd5b505b5050505050565b606060405180602001604052806000815250905090565b6060600060016116ec84611a8f565b01905060008167ffffffffffffffff81111561170b5761170a61218c565b5b6040519080825280601f01601f19166020018201604052801561173d5781602001600182028036833780820191505090505b509050600082602001820190505b6001156117a0578080600190039150507f3031323334353637383961626364656600000000000000000000000000000000600a86061a8153600a85816117945761179361270f565b5b0494506000850361174b575b819350505050919050565b6117c5828260405180602001604052806000815250611be2565b5050565b60006002600083815260200190815260200160002060009054906101000a900473ffffffffffffffffffffffffffffffffffffffff169050919050565b808061183f5750600073ffffffffffffffffffffffffffffffffffffffff168273ffffffffffffffffffffffffffffffffffffffff1614155b1561197357600061184f84610f60565b9050600073ffffffffffffffffffffffffffffffffffffffff168373ffffffffffffffffffffffffffffffffffffffff16141580156118ba57508273ffffffffffffffffffffffffffffffffffffffff168173ffffffffffffffffffffffffffffffffffffffff1614155b80156118cd57506118cb8184610c53565b155b1561190f57826040517fa9fbf51f0000000000000000000000000000000000000000000000000000000081526004016119069190611fe5565b60405180910390fd5b811561197157838573ffffffffffffffffffffffffffffffffffffffff168273ffffffffffffffffffffffffffffffffffffffff167f8c5be1e5ebec7d5bd14f71427d1e84f3dd0314c0f7b2291e5b200ac8c7c3b92560405160405180910390a45b505b836004600085815260200190815260200160002060006101000a81548173ffffffffffffffffffffffffffffffffffffffff021916908373ffffffffffffffffffffffffffffffffffffffff16021790555050505050565b6119d6838383611c06565b611a8a57600073ffffffffffffffffffffffffffffffffffffffff168373ffffffffffffffffffffffffffffffffffffffff1603611a4b57806040517f7e273289000000000000000000000000000000000000000000000000000000008152600401611a4291906120fb565b60405180910390fd5b81816040517f177e802f000000000000000000000000000000000000000000000000000000008152600401611a8192919061273e565b60405180910390fd5b505050565b600080600090507a184f03e93ff9f4daa797ed6e38ed64bf6a1f0100000000000000008310611aed577a184f03e93ff9f4daa797ed6e38ed64bf6a1f0100000000000000008381611ae357611ae261270f565b5b0492506040810190505b6d04ee2d6d415b85acef81000000008310611b2a576d04ee2d6d415b85acef81000000008381611b2057611b1f61270f565b5b0492506020810190505b662386f26fc100008310611b5957662386f26fc100008381611b4f57611b4e61270f565b5b0492506010810190505b6305f5e1008310611b82576305f5e1008381611b7857611b7761270f565b5b0492506008810190505b6127108310611ba7576127108381611b9d57611b9c61270f565b5b0492506004810190505b60648310611bca5760648381611bc057611bbf61270f565b5b0492506002810190505b600a8310611bd9576001810190505b80915050919050565b611bec8383611cc7565b611c01611bf7611025565b6000858585611515565b505050565b60008073ffffffffffffffffffffffffffffffffffffffff168373ffffffffffffffffffffffffffffffffffffffff1614158015611cbe57508273ffffffffffffffffffffffffffffffffffffffff168473ffffffffffffffffffffffffffffffffffffffff161480611c7f5750611c7e8484610c53565b5b80611cbd57508273ffffffffffffffffffffffffffffffffffffffff16611ca583610fe8565b73ffffffffffffffffffffffffffffffffffffffff16145b5b90509392505050565b600073ffffffffffffffffffffffffffffffffffffffff168273ffffffffffffffffffffffffffffffffffffffff1603611d395760006040517f64a0ae92000000000000000000000000000000000000000000000000000000008152600401611d309190611fe5565b60405180910390fd5b6000611d478383600061103f565b9050600073ffffffffffffffffffffffffffffffffffffffff168173ffffffffffffffffffffffffffffffffffffffff1614611dbb5760006040517f73c6ac6e000000000000000000000000000000000000000000000000000000008152600401611db29190611fe5565b60405180910390fd5b505050565b6000604051905090565b600080fd5b600080fd5b60007fffffffff0000000000000000000000000000000000000000000000000000000082169050919050565b611e0981611dd4565b8114611e1457600080fd5b50565b600081359050611e2681611e00565b92915050565b600060208284031215611e4257611e41611dca565b5b6000611e5084828501611e17565b91505092915050565b60008115159050919050565b611e6e81611e59565b82525050565b6000602082019050611e896000830184611e65565b92915050565b600081519050919050565b600082825260208201905092915050565b60005b83811015611ec9578082015181840152602081019050611eae565b60008484015250505050565b6000601f19601f8301169050919050565b6000611ef182611e8f565b611efb8185611e9a565b9350611f0b818560208601611eab565b611f1481611ed5565b840191505092915050565b60006020820190508181036000830152611f398184611ee6565b905092915050565b6000819050919050565b611f5481611f41565b8114611f5f57600080fd5b50565b600081359050611f7181611f4b565b92915050565b600060208284031215611f8d57611f8c611dca565b5b6000611f9b84828501611f62565b91505092915050565b600073ffffffffffffffffffffffffffffffffffffffff82169050919050565b6000611fcf82611fa4565b9050919050565b611fdf81611fc4565b82525050565b6000602082019050611ffa6000830184611fd6565b92915050565b61200981611fc4565b811461201457600080fd5b50565b60008135905061202681612000565b92915050565b6000806040838503121561204357612042611dca565b5b600061205185828601612017565b925050602061206285828601611f62565b9150509250929050565b60008060006060848603121561208557612084611dca565b5b600061209386828701612017565b93505060206120a486828701612017565b92505060406120b586828701611f62565b9150509250925092565b6000602082840312156120d5576120d4611dca565b5b60006120e384828501612017565b91505092915050565b6120f581611f41565b82525050565b600060208201905061211060008301846120ec565b92915050565b61211f81611e59565b811461212a57600080fd5b50565b60008135905061213c81612116565b92915050565b6000806040838503121561215957612158611dca565b5b600061216785828601612017565b92505060206121788582860161212d565b9150509250929050565b600080fd5b600080fd5b7f4e487b7100000000000000000000000000000000000000000000000000000000600052604160045260246000fd5b6121c482611ed5565b810181811067ffffffffffffffff821117156121e3576121e261218c565b5b80604052505050565b60006121f6611dc0565b905061220282826121bb565b919050565b600067ffffffffffffffff8211156122225761222161218c565b5b61222b82611ed5565b9050602081019050919050565b82818337600083830152505050565b600061225a61225584612207565b6121ec565b90508281526020810184848401111561227657612275612187565b5b612281848285612238565b509392505050565b600082601f83011261229e5761229d612182565b5b81356122ae848260208601612247565b91505092915050565b600080600080608085870312156122d1576122d0611dca565b5b60006122df87828801612017565b94505060206122f087828801612017565b935050604061230187828801611f62565b925050606085013567ffffffffffffffff81111561232257612321611dcf565b5b61232e87828801612289565b91505092959194509250565b6000806040838503121561235157612350611dca565b5b600061235f85828601612017565b925050602061237085828601612017565b9150509250929050565b7f4e487b7100000000000000000000000000000000000000000000000000000000600052602260045260246000fd5b600060028204905060018216806123c157607f821691505b6020821081036123d4576123d361237a565b5b50919050565b60006060820190506123ef6000830186611fd6565b6123fc60208301856120ec565b6124096040830184611fd6565b949350505050565b7f4e6f7420616c6c207061697273206d6174636865640000000000000000000000600082015250565b6000612447601583611e9a565b915061245282612411565b602082019050919050565b600060208201905081810360008301526124768161243a565b9050919050565b7f416c726561647920636f6d706c65746564000000000000000000000000000000600082015250565b60006124b3601183611e9a565b91506124be8261247d565b602082019050919050565b600060208201905081810360008301526124e2816124a6565b9050919050565b600081905092915050565b60006124ff82611e8f565b61250981856124e9565b9350612519818560208601611eab565b80840191505092915050565b600061253182856124f4565b915061253d82846124f4565b91508190509392505050565b7f416c6c207061697273206d617463686564000000000000000000000000000000600082015250565b600061257f601183611e9a565b915061258a82612549565b602082019050919050565b600060208201905081810360008301526125ae81612572565b9050919050565b7f4e487b7100000000000000000000000000000000000000000000000000000000600052601160045260246000fd5b60006125ef82611f41565b91507fffffffffffffffffffffffffffffffffffffffffffffffffffffffffffffffff8203612621576126206125b5565b5b600182019050919050565b600081519050919050565b600082825260208201905092915050565b60006126538261262c565b61265d8185612637565b935061266d818560208601611eab565b61267681611ed5565b840191505092915050565b60006080820190506126966000830187611fd6565b6126a36020830186611fd6565b6126b060408301856120ec565b81810360608301526126c28184612648565b905095945050505050565b6000815190506126dc81611e00565b92915050565b6000602082840312156126f8576126f7611dca565b5b6000612706848285016126cd565b91505092915050565b7f4e487b7100000000000000000000000000000000000000000000000000000000600052601260045260246000fd5b60006040820190506127536000830185611fd6565b61276060208301846120ec565b939250505056fea2646970667358221220b231dd3407ff1eb1834eee3a0568fe1b3b8115e5a31c61cd447b1cd9bab1e67164736f6c63430008140033",
  "linkReferences": {},
  "deployedLinkReferences": {}
}